{
  "_format": "hh-sol-artifact-1",
  "contractName": "DeployerApplication",
  "sourceName": "contracts/TenderChain.sol",
  "abi": [
    {
      "inputs": [],
      "stateMutability": "nonpayable",
      "type": "constructor"
    },
    {
      "anonymous": false,
      "inputs": [
        {
          "indexed": false,
          "internalType": "uint256",
          "name": "tenderid",
          "type": "uint256"
        },
        {
          "indexed": false,
          "internalType": "string",
          "name": "name",
          "type": "string"
        },
        {
          "indexed": false,
          "internalType": "string",
          "name": "phoneNo",
          "type": "string"
        },
        {
          "indexed": false,
          "internalType": "uint256",
          "name": "biddingPrice",
          "type": "uint256"
        },
        {
          "indexed": false,
          "internalType": "string",
          "name": "ApplicantEmail",
          "type": "string"
        }
      ],
      "name": "ApplicantApplied",
      "type": "event"
    },
    {
      "anonymous": false,
      "inputs": [
        {
          "indexed": true,
          "internalType": "string",
          "name": "UserEmail",
          "type": "string"
        },
        {
          "indexed": false,
          "internalType": "uint256",
          "name": "tenderid",
          "type": "uint256"
        },
        {
          "indexed": false,
          "internalType": "string",
          "name": "title",
          "type": "string"
        },
        {
          "indexed": false,
          "internalType": "string",
          "name": "status",
          "type": "string"
        },
        {
          "indexed": false,
          "internalType": "string",
          "name": "details",
          "type": "string"
        },
        {
          "indexed": false,
          "internalType": "string",
          "name": "deployedTime",
          "type": "string"
        },
        {
          "indexed": false,
          "internalType": "string",
          "name": "startDate",
          "type": "string"
        },
        {
          "indexed": false,
          "internalType": "string",
          "name": "lastDate",
          "type": "string"
        },
        {
          "indexed": false,
          "internalType": "string",
          "name": "bidOpeningDate",
          "type": "string"
        },
        {
          "indexed": false,
          "internalType": "uint256",
          "name": "minimumBiddingPrice",
          "type": "uint256"
        },
        {
          "indexed": false,
          "internalType": "string",
          "name": "organizationName",
          "type": "string"
        }
      ],
      "name": "ContractDeployed",
      "type": "event"
    },
    {
      "anonymous": false,
      "inputs": [
        {
          "indexed": true,
          "internalType": "address",
          "name": "userAddress",
          "type": "address"
        },
        {
          "indexed": false,
          "internalType": "string",
          "name": "name",
          "type": "string"
        },
        {
          "indexed": false,
          "internalType": "string",
          "name": "email",
          "type": "string"
        },
        {
          "indexed": false,
          "internalType": "string",
          "name": "country",
          "type": "string"
        },
        {
          "indexed": false,
          "internalType": "string",
          "name": "phoneNumber",
          "type": "string"
        }
      ],
      "name": "UserAdded",
      "type": "event"
    },
    {
      "inputs": [
        {
          "internalType": "uint256",
          "name": "_TenderId",
          "type": "uint256"
        },
        {
          "internalType": "string",
          "name": "_Name",
          "type": "string"
        },
        {
          "internalType": "string",
          "name": "_PhoneNO",
          "type": "string"
        },
        {
          "internalType": "uint256",
          "name": "_BiddingPrice",
          "type": "uint256"
        },
        {
          "internalType": "string",
          "name": "_ApplicantEmail",
          "type": "string"
        }
      ],
      "name": "Apply",
      "outputs": [],
      "stateMutability": "nonpayable",
      "type": "function"
    },
    {
      "inputs": [
        {
          "internalType": "string",
          "name": "_name",
          "type": "string"
        },
        {
          "internalType": "string",
          "name": "_email",
          "type": "string"
        },
        {
          "internalType": "string",
          "name": "_country",
          "type": "string"
        },
        {
          "internalType": "string",
          "name": "_password",
          "type": "string"
        },
        {
          "internalType": "string",
          "name": "_phoneNumber",
          "type": "string"
        }
      ],
      "name": "addUser",
      "outputs": [],
      "stateMutability": "nonpayable",
      "type": "function"
    },
    {
      "inputs": [
        {
          "internalType": "uint256",
          "name": "_tenderid",
          "type": "uint256"
        }
      ],
      "name": "delete_contract",
      "outputs": [],
      "stateMutability": "nonpayable",
      "type": "function"
    },
    {
      "inputs": [
        {
          "internalType": "uint256",
          "name": "_tenderid",
          "type": "uint256"
        },
        {
          "internalType": "string",
          "name": "_title",
          "type": "string"
        },
        {
          "internalType": "string",
          "name": "_status",
          "type": "string"
        },
        {
          "internalType": "string",
          "name": "_details",
          "type": "string"
        },
        {
          "internalType": "string",
          "name": "_DeployedTime",
          "type": "string"
        },
        {
          "internalType": "string",
          "name": "_Startdate",
          "type": "string"
        },
        {
          "internalType": "string",
          "name": "_Lastdate",
          "type": "string"
        },
        {
          "internalType": "string",
          "name": "_BidopeningDate",
          "type": "string"
        },
        {
          "internalType": "uint256",
          "name": "_minimumBiddingPrice",
          "type": "uint256"
        },
        {
          "internalType": "string",
          "name": "_OrganizationName",
          "type": "string"
        }
      ],
      "name": "deployContract",
      "outputs": [],
      "stateMutability": "nonpayable",
      "type": "function"
    },
    {
      "inputs": [
        {
          "internalType": "string",
          "name": "_email",
          "type": "string"
        }
      ],
      "name": "getAddress",
      "outputs": [
        {
          "internalType": "address",
          "name": "",
          "type": "address"
        }
      ],
      "stateMutability": "view",
      "type": "function"
    },
    {
      "inputs": [
        {
          "internalType": "uint256",
          "name": "_TenderId",
          "type": "uint256"
        }
      ],
      "name": "getApplicants",
      "outputs": [
        {
          "components": [
            {
              "internalType": "uint256",
              "name": "TenderID",
              "type": "uint256"
            },
            {
              "internalType": "string",
              "name": "PhoneNO",
              "type": "string"
            },
            {
              "internalType": "uint256",
              "name": "BiddingPrice",
              "type": "uint256"
            },
            {
              "internalType": "string",
              "name": "Name",
              "type": "string"
            },
            {
              "internalType": "string",
              "name": "ApplicantEmail",
              "type": "string"
            }
          ],
          "internalType": "struct DeployerApplication.Applicant[]",
          "name": "",
          "type": "tuple[]"
        }
      ],
      "stateMutability": "view",
      "type": "function"
    },
    {
      "inputs": [
        {
          "internalType": "string",
          "name": "_email",
          "type": "string"
        }
      ],
      "name": "getMemo",
      "outputs": [
        {
          "components": [
            {
              "internalType": "uint256",
              "name": "tenderid",
              "type": "uint256"
            },
            {
              "internalType": "string",
              "name": "status",
              "type": "string"
            },
            {
              "internalType": "string",
              "name": "title",
              "type": "string"
            },
            {
              "internalType": "string",
              "name": "details",
              "type": "string"
            },
            {
              "internalType": "string",
              "name": "DeployedTime",
              "type": "string"
            },
            {
              "internalType": "string",
              "name": "Startdate",
              "type": "string"
            },
            {
              "internalType": "string",
              "name": "Lastdate",
              "type": "string"
            },
            {
              "internalType": "string",
              "name": "BidopeningDate",
              "type": "string"
            },
            {
              "internalType": "uint256",
              "name": "minimumBiddingPrice",
              "type": "uint256"
            },
            {
              "internalType": "string",
              "name": "OrganizationName",
              "type": "string"
            },
            {
              "internalType": "bool",
              "name": "accepted",
              "type": "bool"
            }
          ],
          "internalType": "struct DeployerApplication.ListObjects[]",
          "name": "",
          "type": "tuple[]"
        }
      ],
      "stateMutability": "view",
      "type": "function"
    },
    {
      "inputs": [
        {
          "internalType": "uint256",
          "name": "_TenderID",
          "type": "uint256"
        }
      ],
      "name": "getMemoByID",
      "outputs": [
        {
          "components": [
            {
              "internalType": "uint256",
              "name": "tenderid",
              "type": "uint256"
            },
            {
              "internalType": "string",
              "name": "status",
              "type": "string"
            },
            {
              "internalType": "string",
              "name": "title",
              "type": "string"
            },
            {
              "internalType": "string",
              "name": "details",
              "type": "string"
            },
            {
              "internalType": "string",
              "name": "DeployedTime",
              "type": "string"
            },
            {
              "internalType": "string",
              "name": "Startdate",
              "type": "string"
            },
            {
              "internalType": "string",
              "name": "Lastdate",
              "type": "string"
            },
            {
              "internalType": "string",
              "name": "BidopeningDate",
              "type": "string"
            },
            {
              "internalType": "uint256",
              "name": "minimumBiddingPrice",
              "type": "uint256"
            },
            {
              "internalType": "string",
              "name": "OrganizationName",
              "type": "string"
            },
            {
              "internalType": "bool",
              "name": "accepted",
              "type": "bool"
            }
          ],
          "internalType": "struct DeployerApplication.ListObjects",
          "name": "",
          "type": "tuple"
        }
      ],
      "stateMutability": "view",
      "type": "function"
    },
    {
      "inputs": [],
      "name": "getOwner",
      "outputs": [
        {
          "internalType": "address",
          "name": "",
          "type": "address"
        }
      ],
      "stateMutability": "view",
      "type": "function"
    },
    {
      "inputs": [
        {
          "internalType": "string",
          "name": "_email",
          "type": "string"
        }
      ],
      "name": "getPassword",
      "outputs": [
        {
          "internalType": "string",
          "name": "",
          "type": "string"
        }
      ],
      "stateMutability": "view",
      "type": "function"
    },
    {
      "inputs": [],
      "name": "listOfContracts",
      "outputs": [
        {
          "components": [
            {
              "internalType": "uint256",
              "name": "tenderid",
              "type": "uint256"
            },
            {
              "internalType": "string",
              "name": "status",
              "type": "string"
            },
            {
              "internalType": "string",
              "name": "title",
              "type": "string"
            },
            {
              "internalType": "string",
              "name": "details",
              "type": "string"
            },
            {
              "internalType": "string",
              "name": "DeployedTime",
              "type": "string"
            },
            {
              "internalType": "string",
              "name": "Startdate",
              "type": "string"
            },
            {
              "internalType": "string",
              "name": "Lastdate",
              "type": "string"
            },
            {
              "internalType": "string",
              "name": "BidopeningDate",
              "type": "string"
            },
            {
              "internalType": "uint256",
              "name": "minimumBiddingPrice",
              "type": "uint256"
            },
            {
              "internalType": "string",
              "name": "OrganizationName",
              "type": "string"
            },
            {
              "internalType": "bool",
              "name": "accepted",
              "type": "bool"
            }
          ],
          "internalType": "struct DeployerApplication.ListObjects[]",
          "name": "",
          "type": "tuple[]"
        }
      ],
      "stateMutability": "view",
      "type": "function"
    }
  ],
  "bytecode": "0x608060405234801561001057600080fd5b50336000806101000a81548173ffffffffffffffffffffffffffffffffffffffff021916908373ffffffffffffffffffffffffffffffffffffffff160217905550613bb8806100606000396000f3fe608060405234801561001057600080fd5b50600436106100a95760003560e01c80636cf5d86e116100715780636cf5d86e14610176578063893d20e8146101a65780638ae3d51f146101c4578063b37a3d82146101e0578063bf40fac1146101fc578063d57230f71461022c576100a9565b806301b8c31c146100ae578063216d90c2146100de5780633710b04e1461010e5780633bc7b07f1461012a578063645641041461015a575b600080fd5b6100c860048036038101906100c39190612678565b61024a565b6040516100d59190612749565b60405180910390f35b6100f860048036038101906100f39190612678565b6102fa565b60405161010591906129cb565b60405180910390f35b61012860048036038101906101239190612a19565b6108e4565b005b610144600480360381019061013f9190612bd8565b610dd2565b6040516101519190612d25565b60405180910390f35b610174600480360381019061016f9190612d47565b6113bf565b005b610190600480360381019061018b9190612bd8565b6117a6565b60405161019d9190612f5c565b60405180910390f35b6101ae6119e2565b6040516101bb9190612fbf565b60405180910390f35b6101de60048036038101906101d99190612bd8565b611a0b565b005b6101fa60048036038101906101f59190612fda565b611cb1565b005b61021660048036038101906102119190612678565b611f5b565b6040516102239190612fbf565b60405180910390f35b610234611fa3565b60405161024191906129cb565b60405180910390f35b606060038260405161025c919061311d565b9081526020016040518091039020805461027590613163565b80601f01602080910402602001604051908101604052809291908181526020018280546102a190613163565b80156102ee5780601f106102c3576101008083540402835291602001916102ee565b820191906000526020600020905b8154815290600101906020018083116102d157829003601f168201915b50505050509050919050565b6060600073ffffffffffffffffffffffffffffffffffffffff16600283604051610324919061311d565b908152602001604051809103902060009054906101000a900473ffffffffffffffffffffffffffffffffffffffff1673ffffffffffffffffffffffffffffffffffffffff16036103a9576040517f08c379a00000000000000000000000000000000000000000000000000000000081526004016103a0906131e0565b60405180910390fd5b6004826040516103b9919061311d565b9081526020016040518091039020805480602002602001604051908101604052809291908181526020016000905b828210156108d957838290600052602060002090600b0201604051806101600160405290816000820154815260200160018201805461042590613163565b80601f016020809104026020016040519081016040528092919081815260200182805461045190613163565b801561049e5780601f106104735761010080835404028352916020019161049e565b820191906000526020600020905b81548152906001019060200180831161048157829003601f168201915b505050505081526020016002820180546104b790613163565b80601f01602080910402602001604051908101604052809291908181526020018280546104e390613163565b80156105305780601f1061050557610100808354040283529160200191610530565b820191906000526020600020905b81548152906001019060200180831161051357829003601f168201915b5050505050815260200160038201805461054990613163565b80601f016020809104026020016040519081016040528092919081815260200182805461057590613163565b80156105c25780601f10610597576101008083540402835291602001916105c2565b820191906000526020600020905b8154815290600101906020018083116105a557829003601f168201915b505050505081526020016004820180546105db90613163565b80601f016020809104026020016040519081016040528092919081815260200182805461060790613163565b80156106545780601f1061062957610100808354040283529160200191610654565b820191906000526020600020905b81548152906001019060200180831161063757829003601f168201915b5050505050815260200160058201805461066d90613163565b80601f016020809104026020016040519081016040528092919081815260200182805461069990613163565b80156106e65780601f106106bb576101008083540402835291602001916106e6565b820191906000526020600020905b8154815290600101906020018083116106c957829003601f168201915b505050505081526020016006820180546106ff90613163565b80601f016020809104026020016040519081016040528092919081815260200182805461072b90613163565b80156107785780601f1061074d57610100808354040283529160200191610778565b820191906000526020600020905b81548152906001019060200180831161075b57829003601f168201915b5050505050815260200160078201805461079190613163565b80601f01602080910402602001604051908101604052809291908181526020018280546107bd90613163565b801561080a5780601f106107df5761010080835404028352916020019161080a565b820191906000526020600020905b8154815290600101906020018083116107ed57829003601f168201915b505050505081526020016008820154815260200160098201805461082d90613163565b80601f016020809104026020016040519081016040528092919081815260200182805461085990613163565b80156108a65780601f1061087b576101008083540402835291602001916108a6565b820191906000526020600020905b81548152906001019060200180831161088957829003601f168201915b50505050508152602001600a820160009054906101000a900460ff161515151581525050815260200190600101906103e7565b505050509050919050565b600073ffffffffffffffffffffffffffffffffffffffff166002600760003373ffffffffffffffffffffffffffffffffffffffff1673ffffffffffffffffffffffffffffffffffffffff16815260200190815260200160002060010160405161094d9190613298565b908152602001604051809103902060009054906101000a900473ffffffffffffffffffffffffffffffffffffffff1673ffffffffffffffffffffffffffffffffffffffff16036109d2576040517f08c379a00000000000000000000000000000000000000000000000000000000081526004016109c9906132fb565b60405180910390fd5b6000600760003373ffffffffffffffffffffffffffffffffffffffff1673ffffffffffffffffffffffffffffffffffffffff1681526020019081526020016000206001018054610a2190613163565b80601f0160208091040260200160405190810160405280929190818152602001828054610a4d90613163565b8015610a9a5780601f10610a6f57610100808354040283529160200191610a9a565b820191906000526020600020905b815481529060010190602001808311610a7d57829003601f168201915b5050505050905060006040518061016001604052808d81526020018b81526020018c81526020018a8152602001898152602001888152602001878152602001868152602001858152602001848152602001600015158152509050600482604051610b04919061311d565b90815260200160405180910390208190806001815401808255809150506001900390600052602060002090600b0201600090919091909150600082015181600001556020820151816001019081610b5b91906134b2565b506040820151816002019081610b7191906134b2565b506060820151816003019081610b8791906134b2565b506080820151816004019081610b9d91906134b2565b5060a0820151816005019081610bb391906134b2565b5060c0820151816006019081610bc991906134b2565b5060e0820151816007019081610bdf91906134b2565b506101008201518160080155610120820151816009019081610c0191906134b2565b5061014082015181600a0160006101000a81548160ff021916908315150217905550505060068190806001815401808255809150506001900390600052602060002090600b0201600090919091909150600082015181600001556020820151816001019081610c7091906134b2565b506040820151816002019081610c8691906134b2565b506060820151816003019081610c9c91906134b2565b506080820151816004019081610cb291906134b2565b5060a0820151816005019081610cc891906134b2565b5060c0820151816006019081610cde91906134b2565b5060e0820151816007019081610cf491906134b2565b506101008201518160080155610120820151816009019081610d1691906134b2565b5061014082015181600a0160006101000a81548160ff021916908315150217905550505060018060008e815260200190815260200160002060006101000a81548160ff02191690831515021790555081604051610d73919061311d565b60405180910390207fdd25f4ad683f9264f286a72b0bda350db514ed11d128d80d92dc75d69fca3dcc8d8d8d8d8d8d8d8d8d8d604051610dbc9a99989796959493929190613593565b60405180910390a2505050505050505050505050565b610dda6124c2565b6001600083815260200190815260200160002060009054906101000a900460ff16610e3a576040517f08c379a0000000000000000000000000000000000000000000000000000000008152600401610e31906136b3565b60405180910390fd5b60005b60068054905081101561137e578260068281548110610e5f57610e5e6136d3565b5b90600052602060002090600b0201600001540361136b5760068181548110610e8a57610e896136d3565b5b90600052602060002090600b02016040518061016001604052908160008201548152602001600182018054610ebe90613163565b80601f0160208091040260200160405190810160405280929190818152602001828054610eea90613163565b8015610f375780601f10610f0c57610100808354040283529160200191610f37565b820191906000526020600020905b815481529060010190602001808311610f1a57829003601f168201915b50505050508152602001600282018054610f5090613163565b80601f0160208091040260200160405190810160405280929190818152602001828054610f7c90613163565b8015610fc95780601f10610f9e57610100808354040283529160200191610fc9565b820191906000526020600020905b815481529060010190602001808311610fac57829003601f168201915b50505050508152602001600382018054610fe290613163565b80601f016020809104026020016040519081016040528092919081815260200182805461100e90613163565b801561105b5780601f106110305761010080835404028352916020019161105b565b820191906000526020600020905b81548152906001019060200180831161103e57829003601f168201915b5050505050815260200160048201805461107490613163565b80601f01602080910402602001604051908101604052809291908181526020018280546110a090613163565b80156110ed5780601f106110c2576101008083540402835291602001916110ed565b820191906000526020600020905b8154815290600101906020018083116110d057829003601f168201915b5050505050815260200160058201805461110690613163565b80601f016020809104026020016040519081016040528092919081815260200182805461113290613163565b801561117f5780601f106111545761010080835404028352916020019161117f565b820191906000526020600020905b81548152906001019060200180831161116257829003601f168201915b5050505050815260200160068201805461119890613163565b80601f01602080910402602001604051908101604052809291908181526020018280546111c490613163565b80156112115780601f106111e657610100808354040283529160200191611211565b820191906000526020600020905b8154815290600101906020018083116111f457829003601f168201915b5050505050815260200160078201805461122a90613163565b80601f016020809104026020016040519081016040528092919081815260200182805461125690613163565b80156112a35780601f10611278576101008083540402835291602001916112a3565b820191906000526020600020905b81548152906001019060200180831161128657829003601f168201915b50505050508152602001600882015481526020016009820180546112c690613163565b80601f01602080910402602001604051908101604052809291908181526020018280546112f290613163565b801561133f5780601f106113145761010080835404028352916020019161133f565b820191906000526020600020905b81548152906001019060200180831161132257829003601f168201915b50505050508152602001600a820160009054906101000a900460ff1615151515815250509150506113ba565b808061137690613731565b915050610e3d565b506040517f08c379a00000000000000000000000000000000000000000000000000000000081526004016113b1906137c5565b60405180910390fd5b919050565b6001600086815260200190815260200160002060009054906101000a900460ff1661141f576040517f08c379a000000000000000000000000000000000000000000000000000000000815260040161141690613831565b60405180910390fd5b60006004600760003373ffffffffffffffffffffffffffffffffffffffff1673ffffffffffffffffffffffffffffffffffffffff1681526020019081526020016000206001016040516114729190613298565b908152602001604051809103902090506000818054905090506000805b83805490508110156114e557888482815481106114af576114ae6136d3565b5b90600052602060002090600b020160000154036114d257809250600191506114e5565b80806114dd90613731565b91505061148f565b5080611526576040517f08c379a000000000000000000000000000000000000000000000000000000000815260040161151d9061389d565b60405180910390fd5b600083838154811061153b5761153a6136d3565b5b90600052602060002090600b020160080154905080861015611592576040517f08c379a00000000000000000000000000000000000000000000000000000000081526004016115899061392f565b60405180910390fd5b6000805b600560008c81526020019081526020016000208054905081101561165857866040516020016115c5919061311d565b60405160208183030381529060405280519060200120600560008d81526020019081526020016000208281548110611600576115ff6136d3565b5b90600052602060002090600502016004016040516020016116219190613298565b60405160208183030381529060405280519060200120036116455760019150611658565b808061165090613731565b915050611596565b50801561169a576040517f08c379a0000000000000000000000000000000000000000000000000000000008152600401611691906139c1565b60405180910390fd5b60006040518060a001604052808c81526020018a81526020018981526020018b8152602001888152509050600560008c815260200190815260200160002081908060018154018082558091505060019003906000526020600020906005020160009091909190915060008201518160000155602082015181600101908161172191906134b2565b5060408201518160020155606082015181600301908161174191906134b2565b50608082015181600401908161175791906134b2565b5050507f58d35c41205787785c2a1825481e26d7c38c1f85d6c02fb840319286f952e41b8b8b8b8b8b6040516117919594939291906139e1565b60405180910390a15050505050505050505050565b606060056000838152602001908152602001600020805480602002602001604051908101604052809291908181526020016000905b828210156119d757838290600052602060002090600502016040518060a00160405290816000820154815260200160018201805461181890613163565b80601f016020809104026020016040519081016040528092919081815260200182805461184490613163565b80156118915780601f1061186657610100808354040283529160200191611891565b820191906000526020600020905b81548152906001019060200180831161187457829003601f168201915b50505050508152602001600282015481526020016003820180546118b490613163565b80601f01602080910402602001604051908101604052809291908181526020018280546118e090613163565b801561192d5780601f106119025761010080835404028352916020019161192d565b820191906000526020600020905b81548152906001019060200180831161191057829003601f168201915b5050505050815260200160048201805461194690613163565b80601f016020809104026020016040519081016040528092919081815260200182805461197290613163565b80156119bf5780601f10611994576101008083540402835291602001916119bf565b820191906000526020600020905b8154815290600101906020018083116119a257829003601f168201915b505050505081525050815260200190600101906117db565b505050509050919050565b60008060009054906101000a900473ffffffffffffffffffffffffffffffffffffffff16905090565b6009600082815260200190815260200160002060009054906101000a900460ff1615611a6c576040517f08c379a0000000000000000000000000000000000000000000000000000000008152600401611a6390613a95565b60405180910390fd5b60016009600083815260200190815260200160002060006101000a81548160ff02191690831515021790555060005b600680549050811015611b2a578160068281548110611abd57611abc6136d3565b5b90600052602060002090600b02016000015403611b1757600160068281548110611aea57611ae96136d3565b5b90600052602060002090600b0201600a0160006101000a81548160ff021916908315150217905550611b2a565b8080611b2290613731565b915050611a9b565b506000600760003373ffffffffffffffffffffffffffffffffffffffff1673ffffffffffffffffffffffffffffffffffffffff1681526020019081526020016000206001018054611b7a90613163565b80601f0160208091040260200160405190810160405280929190818152602001828054611ba690613163565b8015611bf35780601f10611bc857610100808354040283529160200191611bf3565b820191906000526020600020905b815481529060010190602001808311611bd657829003601f168201915b505050505090506000600482604051611c0c919061311d565b9081526020016040518091039020905060005b8180549050811015611cab5783828281548110611c3f57611c3e6136d3565b5b90600052602060002090600b02016000015403611c98576001828281548110611c6b57611c6a6136d3565b5b90600052602060002090600b0201600a0160006101000a81548160ff021916908315150217905550611cab565b8080611ca390613731565b915050611c1f565b50505050565b600073ffffffffffffffffffffffffffffffffffffffff16600285604051611cd9919061311d565b908152602001604051809103902060009054906101000a900473ffffffffffffffffffffffffffffffffffffffff1673ffffffffffffffffffffffffffffffffffffffff1614611d5e576040517f08c379a0000000000000000000000000000000000000000000000000000000008152600401611d5590613b01565b60405180910390fd5b6000339050604051806080016040528087815260200186815260200185815260200183815250600760008373ffffffffffffffffffffffffffffffffffffffff1673ffffffffffffffffffffffffffffffffffffffff1681526020019081526020016000206000820151816000019081611dd891906134b2565b506020820151816001019081611dee91906134b2565b506040820151816002019081611e0491906134b2565b506060820151816003019081611e1a91906134b2565b5090505080600286604051611e2f919061311d565b908152602001604051809103902060006101000a81548173ffffffffffffffffffffffffffffffffffffffff021916908373ffffffffffffffffffffffffffffffffffffffff1602179055506001600860008373ffffffffffffffffffffffffffffffffffffffff1673ffffffffffffffffffffffffffffffffffffffff16815260200190815260200160002060006101000a81548160ff02191690831515021790555082600386604051611ee4919061311d565b90815260200160405180910390209081611efe91906134b2565b508073ffffffffffffffffffffffffffffffffffffffff167f10bb073e1ce0977d8bf7b641de8a59b02dd9c9d1c4badc9b30e5a48ac9fc8cb987878786604051611f4b9493929190613b21565b60405180910390a2505050505050565b6000600282604051611f6d919061311d565b908152602001604051809103902060009054906101000a900473ffffffffffffffffffffffffffffffffffffffff169050919050565b60606006805480602002602001604051908101604052809291908181526020016000905b828210156124b957838290600052602060002090600b0201604051806101600160405290816000820154815260200160018201805461200590613163565b80601f016020809104026020016040519081016040528092919081815260200182805461203190613163565b801561207e5780601f106120535761010080835404028352916020019161207e565b820191906000526020600020905b81548152906001019060200180831161206157829003601f168201915b5050505050815260200160028201805461209790613163565b80601f01602080910402602001604051908101604052809291908181526020018280546120c390613163565b80156121105780601f106120e557610100808354040283529160200191612110565b820191906000526020600020905b8154815290600101906020018083116120f357829003601f168201915b5050505050815260200160038201805461212990613163565b80601f016020809104026020016040519081016040528092919081815260200182805461215590613163565b80156121a25780601f10612177576101008083540402835291602001916121a2565b820191906000526020600020905b81548152906001019060200180831161218557829003601f168201915b505050505081526020016004820180546121bb90613163565b80601f01602080910402602001604051908101604052809291908181526020018280546121e790613163565b80156122345780601f1061220957610100808354040283529160200191612234565b820191906000526020600020905b81548152906001019060200180831161221757829003601f168201915b5050505050815260200160058201805461224d90613163565b80601f016020809104026020016040519081016040528092919081815260200182805461227990613163565b80156122c65780601f1061229b576101008083540402835291602001916122c6565b820191906000526020600020905b8154815290600101906020018083116122a957829003601f168201915b505050505081526020016006820180546122df90613163565b80601f016020809104026020016040519081016040528092919081815260200182805461230b90613163565b80156123585780601f1061232d57610100808354040283529160200191612358565b820191906000526020600020905b81548152906001019060200180831161233b57829003601f168201915b5050505050815260200160078201805461237190613163565b80601f016020809104026020016040519081016040528092919081815260200182805461239d90613163565b80156123ea5780601f106123bf576101008083540402835291602001916123ea565b820191906000526020600020905b8154815290600101906020018083116123cd57829003601f168201915b505050505081526020016008820154815260200160098201805461240d90613163565b80601f016020809104026020016040519081016040528092919081815260200182805461243990613163565b80156124865780601f1061245b57610100808354040283529160200191612486565b820191906000526020600020905b81548152906001019060200180831161246957829003601f168201915b50505050508152602001600a820160009054906101000a900460ff16151515158152505081526020019060010190611fc7565b50505050905090565b604051806101600160405280600081526020016060815260200160608152602001606081526020016060815260200160608152602001606081526020016060815260200160008152602001606081526020016000151581525090565b6000604051905090565b600080fd5b600080fd5b600080fd5b600080fd5b6000601f19601f8301169050919050565b7f4e487b7100000000000000000000000000000000000000000000000000000000600052604160045260246000fd5b6125858261253c565b810181811067ffffffffffffffff821117156125a4576125a361254d565b5b80604052505050565b60006125b761251e565b90506125c3828261257c565b919050565b600067ffffffffffffffff8211156125e3576125e261254d565b5b6125ec8261253c565b9050602081019050919050565b82818337600083830152505050565b600061261b612616846125c8565b6125ad565b90508281526020810184848401111561263757612636612537565b5b6126428482856125f9565b509392505050565b600082601f83011261265f5761265e612532565b5b813561266f848260208601612608565b91505092915050565b60006020828403121561268e5761268d612528565b5b600082013567ffffffffffffffff8111156126ac576126ab61252d565b5b6126b88482850161264a565b91505092915050565b600081519050919050565b600082825260208201905092915050565b60005b838110156126fb5780820151818401526020810190506126e0565b8381111561270a576000848401525b50505050565b600061271b826126c1565b61272581856126cc565b93506127358185602086016126dd565b61273e8161253c565b840191505092915050565b600060208201905081810360008301526127638184612710565b905092915050565b600081519050919050565b600082825260208201905092915050565b6000819050602082019050919050565b6000819050919050565b6127aa81612797565b82525050565b600082825260208201905092915050565b60006127cc826126c1565b6127d681856127b0565b93506127e68185602086016126dd565b6127ef8161253c565b840191505092915050565b60008115159050919050565b61280f816127fa565b82525050565b60006101608301600083015161282e60008601826127a1565b506020830151848203602086015261284682826127c1565b9150506040830151848203604086015261286082826127c1565b9150506060830151848203606086015261287a82826127c1565b9150506080830151848203608086015261289482826127c1565b91505060a083015184820360a08601526128ae82826127c1565b91505060c083015184820360c08601526128c882826127c1565b91505060e083015184820360e08601526128e282826127c1565b9150506101008301516128f96101008601826127a1565b5061012083015184820361012086015261291382826127c1565b91505061014083015161292a610140860182612806565b508091505092915050565b60006129418383612815565b905092915050565b6000602082019050919050565b60006129618261276b565b61296b8185612776565b93508360208202850161297d85612787565b8060005b858110156129b9578484038952815161299a8582612935565b94506129a583612949565b925060208a01995050600181019050612981565b50829750879550505050505092915050565b600060208201905081810360008301526129e58184612956565b905092915050565b6129f681612797565b8114612a0157600080fd5b50565b600081359050612a13816129ed565b92915050565b6000806000806000806000806000806101408b8d031215612a3d57612a3c612528565b5b6000612a4b8d828e01612a04565b9a505060208b013567ffffffffffffffff811115612a6c57612a6b61252d565b5b612a788d828e0161264a565b99505060408b013567ffffffffffffffff811115612a9957612a9861252d565b5b612aa58d828e0161264a565b98505060608b013567ffffffffffffffff811115612ac657612ac561252d565b5b612ad28d828e0161264a565b97505060808b013567ffffffffffffffff811115612af357612af261252d565b5b612aff8d828e0161264a565b96505060a08b013567ffffffffffffffff811115612b2057612b1f61252d565b5b612b2c8d828e0161264a565b95505060c08b013567ffffffffffffffff811115612b4d57612b4c61252d565b5b612b598d828e0161264a565b94505060e08b013567ffffffffffffffff811115612b7a57612b7961252d565b5b612b868d828e0161264a565b935050610100612b988d828e01612a04565b9250506101208b013567ffffffffffffffff811115612bba57612bb961252d565b5b612bc68d828e0161264a565b9150509295989b9194979a5092959850565b600060208284031215612bee57612bed612528565b5b6000612bfc84828501612a04565b91505092915050565b600061016083016000830151612c1e60008601826127a1565b5060208301518482036020860152612c3682826127c1565b91505060408301518482036040860152612c5082826127c1565b91505060608301518482036060860152612c6a82826127c1565b91505060808301518482036080860152612c8482826127c1565b91505060a083015184820360a0860152612c9e82826127c1565b91505060c083015184820360c0860152612cb882826127c1565b91505060e083015184820360e0860152612cd282826127c1565b915050610100830151612ce96101008601826127a1565b50610120830151848203610120860152612d0382826127c1565b915050610140830151612d1a610140860182612806565b508091505092915050565b60006020820190508181036000830152612d3f8184612c05565b905092915050565b600080600080600060a08688031215612d6357612d62612528565b5b6000612d7188828901612a04565b955050602086013567ffffffffffffffff811115612d9257612d9161252d565b5b612d9e8882890161264a565b945050604086013567ffffffffffffffff811115612dbf57612dbe61252d565b5b612dcb8882890161264a565b9350506060612ddc88828901612a04565b925050608086013567ffffffffffffffff811115612dfd57612dfc61252d565b5b612e098882890161264a565b9150509295509295909350565b600081519050919050565b600082825260208201905092915050565b6000819050602082019050919050565b600060a083016000830151612e5a60008601826127a1565b5060208301518482036020860152612e7282826127c1565b9150506040830151612e8760408601826127a1565b5060608301518482036060860152612e9f82826127c1565b91505060808301518482036080860152612eb982826127c1565b9150508091505092915050565b6000612ed28383612e42565b905092915050565b6000602082019050919050565b6000612ef282612e16565b612efc8185612e21565b935083602082028501612f0e85612e32565b8060005b85811015612f4a5784840389528151612f2b8582612ec6565b9450612f3683612eda565b925060208a01995050600181019050612f12565b50829750879550505050505092915050565b60006020820190508181036000830152612f768184612ee7565b905092915050565b600073ffffffffffffffffffffffffffffffffffffffff82169050919050565b6000612fa982612f7e565b9050919050565b612fb981612f9e565b82525050565b6000602082019050612fd46000830184612fb0565b92915050565b600080600080600060a08688031215612ff657612ff5612528565b5b600086013567ffffffffffffffff8111156130145761301361252d565b5b6130208882890161264a565b955050602086013567ffffffffffffffff8111156130415761304061252d565b5b61304d8882890161264a565b945050604086013567ffffffffffffffff81111561306e5761306d61252d565b5b61307a8882890161264a565b935050606086013567ffffffffffffffff81111561309b5761309a61252d565b5b6130a78882890161264a565b925050608086013567ffffffffffffffff8111156130c8576130c761252d565b5b6130d48882890161264a565b9150509295509295909350565b600081905092915050565b60006130f7826126c1565b61310181856130e1565b93506131118185602086016126dd565b80840191505092915050565b600061312982846130ec565b915081905092915050565b7f4e487b7100000000000000000000000000000000000000000000000000000000600052602260045260246000fd5b6000600282049050600182168061317b57607f821691505b60208210810361318e5761318d613134565b5b50919050565b7f456d61696c206164647265737320646f6573206e6f7420657869737400000000600082015250565b60006131ca601c836126cc565b91506131d582613194565b602082019050919050565b600060208201905081810360008301526131f9816131bd565b9050919050565b60008190508160005260206000209050919050565b6000815461322281613163565b61322c81866130e1565b94506001821660008114613247576001811461325c5761328f565b60ff198316865281151582028601935061328f565b61326585613200565b60005b8381101561328757815481890152600182019150602081019050613268565b838801955050505b50505092915050565b60006132a48284613215565b915081905092915050565b7f5573657220646f6573206e6f7420657869737400000000000000000000000000600082015250565b60006132e56013836126cc565b91506132f0826132af565b602082019050919050565b60006020820190508181036000830152613314816132d8565b9050919050565b60006020601f8301049050919050565b600082821b905092915050565b6000600883026133687fffffffffffffffffffffffffffffffffffffffffffffffffffffffffffffffff8261332b565b613372868361332b565b95508019841693508086168417925050509392505050565b6000819050919050565b60006133af6133aa6133a584612797565b61338a565b612797565b9050919050565b6000819050919050565b6133c983613394565b6133dd6133d5826133b6565b848454613338565b825550505050565b600090565b6133f26133e5565b6133fd8184846133c0565b505050565b5b81811015613421576134166000826133ea565b600181019050613403565b5050565b601f8211156134665761343781613200565b6134408461331b565b8101602085101561344f578190505b61346361345b8561331b565b830182613402565b50505b505050565b600082821c905092915050565b60006134896000198460080261346b565b1980831691505092915050565b60006134a28383613478565b9150826002028217905092915050565b6134bb826126c1565b67ffffffffffffffff8111156134d4576134d361254d565b5b6134de8254613163565b6134e9828285613425565b600060209050601f83116001811461351c576000841561350a578287015190505b6135148582613496565b86555061357c565b601f19841661352a86613200565b60005b828110156135525784890151825560018201915060208501945060208101905061352d565b8683101561356f578489015161356b601f891682613478565b8355505b6001600288020188555050505b505050505050565b61358d81612797565b82525050565b6000610140820190506135a9600083018d613584565b81810360208301526135bb818c612710565b905081810360408301526135cf818b612710565b905081810360608301526135e3818a612710565b905081810360808301526135f78189612710565b905081810360a083015261360b8188612710565b905081810360c083015261361f8187612710565b905081810360e08301526136338186612710565b9050613643610100830185613584565b8181036101208301526136568184612710565b90509b9a5050505050505050505050565b7f54656e646572494420446f6573204e6f74204578697374000000000000000000600082015250565b600061369d6017836126cc565b91506136a882613667565b602082019050919050565b600060208201905081810360008301526136cc81613690565b9050919050565b7f4e487b7100000000000000000000000000000000000000000000000000000000600052603260045260246000fd5b7f4e487b7100000000000000000000000000000000000000000000000000000000600052601160045260246000fd5b600061373c82612797565b91507fffffffffffffffffffffffffffffffffffffffffffffffffffffffffffffffff820361376e5761376d613702565b5b600182019050919050565b7f54656e646572206e6f7420666f756e6400000000000000000000000000000000600082015250565b60006137af6010836126cc565b91506137ba82613779565b602082019050919050565b600060208201905081810360008301526137de816137a2565b9050919050565b7f54656e64657220696420646f6573206e6f742065786973740000000000000000600082015250565b600061381b6018836126cc565b9150613826826137e5565b602082019050919050565b6000602082019050818103600083015261384a8161380e565b9050919050565b7f5573657220646f6573206e6f74206861766520746869732074656e6465720000600082015250565b6000613887601e836126cc565b915061389282613851565b602082019050919050565b600060208201905081810360008301526138b68161387a565b9050919050565b7f42696464696e6720616d6f756e74206973206c657373207468616e206d696e6960008201527f6d756d2062696464696e67207072696365000000000000000000000000000000602082015250565b60006139196031836126cc565b9150613924826138bd565b604082019050919050565b600060208201905081810360008301526139488161390c565b9050919050565b7f456d61696c20697320616c7265616479207265676973746572656420666f722060008201527f7468697320636f6e747261637400000000000000000000000000000000000000602082015250565b60006139ab602d836126cc565b91506139b68261394f565b604082019050919050565b600060208201905081810360008301526139da8161399e565b9050919050565b600060a0820190506139f66000830188613584565b8181036020830152613a088187612710565b90508181036040830152613a1c8186612710565b9050613a2b6060830185613584565b8181036080830152613a3d8184612710565b90509695505050505050565b7f54656e64657220616c7265616479206163636570746564000000000000000000600082015250565b6000613a7f6017836126cc565b9150613a8a82613a49565b602082019050919050565b60006020820190508181036000830152613aae81613a72565b9050919050565b7f456d61696c206164647265737320616c72656164792065786973747300000000600082015250565b6000613aeb601c836126cc565b9150613af682613ab5565b602082019050919050565b60006020820190508181036000830152613b1a81613ade565b9050919050565b60006080820190508181036000830152613b3b8187612710565b90508181036020830152613b4f8186612710565b90508181036040830152613b638185612710565b90508181036060830152613b778184612710565b90509594505050505056fea264697066735822122072399543458f5fb2fcba770da68b9a55427a0307e8b451c576502a4dbe17bccf64736f6c634300080f0033",
  "linkReferences": {},
  "deployedLinkReferences": {}
}